{
  "contractName": "Migrate",
  "abi": [
    {
      "inputs": [
        {
          "internalType": "contract IERC20",
          "name": "tokenAddressV1",
          "type": "address"
        },
        {
          "internalType": "contract IERC20",
          "name": "tokenAddressV2",
          "type": "address"
        },
        {
          "internalType": "uint256",
          "name": "_rate",
          "type": "uint256"
        }
      ],
      "stateMutability": "nonpayable",
      "type": "constructor"
    },
    {
      "anonymous": false,
      "inputs": [
        {
          "indexed": false,
          "internalType": "address",
          "name": "addr",
          "type": "address"
        },
        {
          "indexed": false,
          "internalType": "uint256",
          "name": "amount",
          "type": "uint256"
        }
      ],
      "name": "MigrateToV2",
      "type": "event"
    },
    {
      "anonymous": false,
      "inputs": [
        {
          "indexed": true,
          "internalType": "address",
          "name": "previousOwner",
          "type": "address"
        },
        {
          "indexed": true,
          "internalType": "address",
          "name": "newOwner",
          "type": "address"
        }
      ],
      "name": "OwnershipTransferred",
      "type": "event"
    },
    {
      "inputs": [],
      "name": "deadWallet",
      "outputs": [
        {
          "internalType": "address",
          "name": "",
          "type": "address"
        }
      ],
      "stateMutability": "view",
      "type": "function"
    },
    {
      "inputs": [],
      "name": "migrationStarted",
      "outputs": [
        {
          "internalType": "bool",
          "name": "",
          "type": "bool"
        }
      ],
      "stateMutability": "view",
      "type": "function"
    },
    {
      "inputs": [],
      "name": "owner",
      "outputs": [
        {
          "internalType": "address",
          "name": "",
          "type": "address"
        }
      ],
      "stateMutability": "view",
      "type": "function"
    },
    {
      "inputs": [],
      "name": "rate",
      "outputs": [
        {
          "internalType": "uint256",
          "name": "",
          "type": "uint256"
        }
      ],
      "stateMutability": "view",
      "type": "function"
    },
    {
      "inputs": [],
      "name": "renounceOwnership",
      "outputs": [],
      "stateMutability": "nonpayable",
      "type": "function"
    },
    {
      "inputs": [],
      "name": "tokenV1",
      "outputs": [
        {
          "internalType": "contract IERC20",
          "name": "",
          "type": "address"
        }
      ],
      "stateMutability": "view",
      "type": "function"
    },
    {
      "inputs": [],
      "name": "tokenV2",
      "outputs": [
        {
          "internalType": "contract IERC20",
          "name": "",
          "type": "address"
        }
      ],
      "stateMutability": "view",
      "type": "function"
    },
    {
      "inputs": [
        {
          "internalType": "address",
          "name": "newOwner",
          "type": "address"
        }
      ],
      "name": "transferOwnership",
      "outputs": [],
      "stateMutability": "nonpayable",
      "type": "function"
    },
    {
      "inputs": [],
      "name": "startMigration",
      "outputs": [],
      "stateMutability": "nonpayable",
      "type": "function"
    },
    {
      "inputs": [],
      "name": "stopMigration",
      "outputs": [],
      "stateMutability": "nonpayable",
      "type": "function"
    },
    {
      "inputs": [
        {
          "internalType": "contract IERC20",
          "name": "tokenV1addr",
          "type": "address"
        },
        {
          "internalType": "contract IERC20",
          "name": "tokenV2addr",
          "type": "address"
        },
        {
          "internalType": "uint256",
          "name": "_rate",
          "type": "uint256"
        }
      ],
      "name": "setTokenV1andV2",
      "outputs": [],
      "stateMutability": "nonpayable",
      "type": "function"
    },
    {
      "inputs": [
        {
          "internalType": "uint256",
          "name": "amount",
          "type": "uint256"
        }
      ],
      "name": "withdrawTokens",
      "outputs": [],
      "stateMutability": "nonpayable",
      "type": "function"
    },
    {
      "inputs": [
        {
          "internalType": "uint256",
          "name": "v1amount",
          "type": "uint256"
        }
      ],
      "name": "migrateToV2",
      "outputs": [],
      "stateMutability": "nonpayable",
      "type": "function"
    }
  ],
  "bytecode": "0x60a060405261dead73ffffffffffffffffffffffffffffffffffffffff1660809073ffffffffffffffffffffffffffffffffffffffff1660601b8152503480156200004957600080fd5b5060405162001e2e38038062001e2e83398181016040528101906200006f9190620001f0565b6001600081905550600062000089620001ba60201b60201c565b905080600160006101000a81548173ffffffffffffffffffffffffffffffffffffffff021916908373ffffffffffffffffffffffffffffffffffffffff1602179055508073ffffffffffffffffffffffffffffffffffffffff16600073ffffffffffffffffffffffffffffffffffffffff167f8be0079c531659141344cd1fd0a4f28419497f9722a3daafe3b4186f6b6457e060405160405180910390a35081600560006101000a81548173ffffffffffffffffffffffffffffffffffffffff021916908373ffffffffffffffffffffffffffffffffffffffff16021790555082600460006101000a81548173ffffffffffffffffffffffffffffffffffffffff021916908373ffffffffffffffffffffffffffffffffffffffff16021790555080600681905550505050620002d7565b600033905090565b600081519050620001d381620002a3565b92915050565b600081519050620001ea81620002bd565b92915050565b6000806000606084860312156200020c576200020b6200029e565b5b60006200021c86828701620001c2565b93505060206200022f86828701620001c2565b92505060406200024286828701620001d9565b9150509250925092565b6000620002598262000274565b9050919050565b60006200026d826200024c565b9050919050565b600073ffffffffffffffffffffffffffffffffffffffff82169050919050565b6000819050919050565b600080fd5b620002ae8162000260565b8114620002ba57600080fd5b50565b620002c88162000294565b8114620002d457600080fd5b50565b60805160601c611b31620002fd600039600081816109e90152610d040152611b316000f3fe608060405234801561001057600080fd5b50600436106100cf5760003560e01c80637c6e94e31161008c5780638da5cb5b116100665780638da5cb5b146101b6578063993916ed146101d4578063e19a7bc8146101f0578063f2fde38b146101fa576100cf565b80637c6e94e31461015c57806383b25b891461017a57806385141a7714610198576100cf565b80631382d8c2146100d457806318264f33146100f25780632c4e722e146100fc578063315a095d1461011a578063352101f314610136578063715018a614610152575b600080fd5b6100dc610216565b6040516100e991906114cb565b60405180910390f35b6100fa61023c565b005b610104610346565b6040516101119190611606565b60405180910390f35b610134600480360381019061012f9190611264565b61034c565b005b610150600480360381019061014b9190611264565b6105a2565b005b61015a610b71565b005b610164610cc9565b60405161017191906114b0565b60405180910390f35b610182610cdc565b60405161018f91906114cb565b60405180910390f35b6101a0610d02565b6040516101ad9190611435565b60405180910390f35b6101be610d26565b6040516101cb9190611435565b60405180910390f35b6101ee60048036038101906101e99190611211565b610d50565b005b6101f8610e75565b005b610214600480360381019061020f91906111b7565b610f7f565b005b600560009054906101000a900473ffffffffffffffffffffffffffffffffffffffff1681565b610244611146565b73ffffffffffffffffffffffffffffffffffffffff16600160009054906101000a900473ffffffffffffffffffffffffffffffffffffffff1673ffffffffffffffffffffffffffffffffffffffff16146102d3576040517f08c379a00000000000000000000000000000000000000000000000000000000081526004016102ca906115c6565b60405180910390fd5b60001515600760009054906101000a900460ff16151514610329576040517f08c379a000000000000000000000000000000000000000000000000000000000815260040161032090611566565b60405180910390fd5b6001600760006101000a81548160ff021916908315150217905550565b60065481565b610354611146565b73ffffffffffffffffffffffffffffffffffffffff16600160009054906101000a900473ffffffffffffffffffffffffffffffffffffffff1673ffffffffffffffffffffffffffffffffffffffff16146103e3576040517f08c379a00000000000000000000000000000000000000000000000000000000081526004016103da906115c6565b60405180910390fd5b60001515600760009054906101000a900460ff16151514610439576040517f08c379a000000000000000000000000000000000000000000000000000000000815260040161043090611506565b60405180910390fd5b600560009054906101000a900473ffffffffffffffffffffffffffffffffffffffff1673ffffffffffffffffffffffffffffffffffffffff1663a9059cbb33600560009054906101000a900473ffffffffffffffffffffffffffffffffffffffff1673ffffffffffffffffffffffffffffffffffffffff1663313ce5676040518163ffffffff1660e01b815260040160206040518083038186803b1580156104e057600080fd5b505afa1580156104f4573d6000803e3d6000fd5b505050506040513d601f19601f820116820180604052508101906105189190611291565b600a6105249190611685565b8461052f91906117a3565b6040518363ffffffff1660e01b815260040161054c929190611487565b602060405180830381600087803b15801561056657600080fd5b505af115801561057a573d6000803e3d6000fd5b505050506040513d601f19601f8201168201806040525081019061059e91906111e4565b5050565b600260005414156105e8576040517f08c379a00000000000000000000000000000000000000000000000000000000081526004016105df906115e6565b60405180910390fd5b600260008190555060011515600760009054906101000a900460ff16151514610646576040517f08c379a000000000000000000000000000000000000000000000000000000000815260040161063d906114e6565b60405180910390fd5b6000600460009054906101000a900473ffffffffffffffffffffffffffffffffffffffff1673ffffffffffffffffffffffffffffffffffffffff1663313ce5676040518163ffffffff1660e01b815260040160206040518083038186803b1580156106b057600080fd5b505afa1580156106c4573d6000803e3d6000fd5b505050506040513d601f19601f820116820180604052508101906106e89190611291565b600a6106f49190611685565b826106ff91906117a3565b90506000600460009054906101000a900473ffffffffffffffffffffffffffffffffffffffff1673ffffffffffffffffffffffffffffffffffffffff166370a08231336040518263ffffffff1660e01b815260040161075e9190611435565b60206040518083038186803b15801561077657600080fd5b505afa15801561078a573d6000803e3d6000fd5b505050506040513d601f19601f820116820180604052508101906107ae9190611291565b9050818110156107f3576040517f08c379a00000000000000000000000000000000000000000000000000000000081526004016107ea90611586565b60405180910390fd5b6000600560009054906101000a900473ffffffffffffffffffffffffffffffffffffffff1673ffffffffffffffffffffffffffffffffffffffff1663313ce5676040518163ffffffff1660e01b815260040160206040518083038186803b15801561085d57600080fd5b505afa158015610871573d6000803e3d6000fd5b505050506040513d601f19601f820116820180604052508101906108959190611291565b600a6108a19190611685565b600654856108af91906117a3565b6108b991906117a3565b905080600560009054906101000a900473ffffffffffffffffffffffffffffffffffffffff1673ffffffffffffffffffffffffffffffffffffffff166370a08231306040518263ffffffff1660e01b81526004016109179190611435565b60206040518083038186803b15801561092f57600080fd5b505afa158015610943573d6000803e3d6000fd5b505050506040513d601f19601f820116820180604052508101906109679190611291565b10156109a8576040517f08c379a000000000000000000000000000000000000000000000000000000000815260040161099f906115a6565b60405180910390fd5b600460009054906101000a900473ffffffffffffffffffffffffffffffffffffffff1673ffffffffffffffffffffffffffffffffffffffff166323b872dd337f0000000000000000000000000000000000000000000000000000000000000000866040518463ffffffff1660e01b8152600401610a2793929190611450565b602060405180830381600087803b158015610a4157600080fd5b505af1158015610a55573d6000803e3d6000fd5b505050506040513d601f19601f82011682018060405250810190610a7991906111e4565b50600560009054906101000a900473ffffffffffffffffffffffffffffffffffffffff1673ffffffffffffffffffffffffffffffffffffffff1663a9059cbb33836040518363ffffffff1660e01b8152600401610ad7929190611487565b602060405180830381600087803b158015610af157600080fd5b505af1158015610b05573d6000803e3d6000fd5b505050506040513d601f19601f82011682018060405250810190610b2991906111e4565b507f44333d05a3e717c04f00cf0d67e3fa24e9dd7a7bf353bb0ca809d6dea30fab663382604051610b5b929190611487565b60405180910390a1505050600160008190555050565b610b79611146565b73ffffffffffffffffffffffffffffffffffffffff16600160009054906101000a900473ffffffffffffffffffffffffffffffffffffffff1673ffffffffffffffffffffffffffffffffffffffff1614610c08576040517f08c379a0000000000000000000000000000000000000000000000000000000008152600401610bff906115c6565b60405180910390fd5b600073ffffffffffffffffffffffffffffffffffffffff16600160009054906101000a900473ffffffffffffffffffffffffffffffffffffffff1673ffffffffffffffffffffffffffffffffffffffff167f8be0079c531659141344cd1fd0a4f28419497f9722a3daafe3b4186f6b6457e060405160405180910390a36000600160006101000a81548173ffffffffffffffffffffffffffffffffffffffff021916908373ffffffffffffffffffffffffffffffffffffffff160217905550565b600760009054906101000a900460ff1681565b600460009054906101000a900473ffffffffffffffffffffffffffffffffffffffff1681565b7f000000000000000000000000000000000000000000000000000000000000000081565b6000600160009054906101000a900473ffffffffffffffffffffffffffffffffffffffff16905090565b610d58611146565b73ffffffffffffffffffffffffffffffffffffffff16600160009054906101000a900473ffffffffffffffffffffffffffffffffffffffff1673ffffffffffffffffffffffffffffffffffffffff1614610de7576040517f08c379a0000000000000000000000000000000000000000000000000000000008152600401610dde906115c6565b60405180910390fd5b82600460006101000a81548173ffffffffffffffffffffffffffffffffffffffff021916908373ffffffffffffffffffffffffffffffffffffffff16021790555081600560006101000a81548173ffffffffffffffffffffffffffffffffffffffff021916908373ffffffffffffffffffffffffffffffffffffffff16021790555080600681905550505050565b610e7d611146565b73ffffffffffffffffffffffffffffffffffffffff16600160009054906101000a900473ffffffffffffffffffffffffffffffffffffffff1673ffffffffffffffffffffffffffffffffffffffff1614610f0c576040517f08c379a0000000000000000000000000000000000000000000000000000000008152600401610f03906115c6565b60405180910390fd5b60011515600760009054906101000a900460ff16151514610f62576040517f08c379a0000000000000000000000000000000000000000000000000000000008152600401610f5990611546565b60405180910390fd5b6000600760006101000a81548160ff021916908315150217905550565b610f87611146565b73ffffffffffffffffffffffffffffffffffffffff16600160009054906101000a900473ffffffffffffffffffffffffffffffffffffffff1673ffffffffffffffffffffffffffffffffffffffff1614611016576040517f08c379a000000000000000000000000000000000000000000000000000000000815260040161100d906115c6565b60405180910390fd5b600073ffffffffffffffffffffffffffffffffffffffff168173ffffffffffffffffffffffffffffffffffffffff161415611086576040517f08c379a000000000000000000000000000000000000000000000000000000000815260040161107d90611526565b60405180910390fd5b8073ffffffffffffffffffffffffffffffffffffffff16600160009054906101000a900473ffffffffffffffffffffffffffffffffffffffff1673ffffffffffffffffffffffffffffffffffffffff167f8be0079c531659141344cd1fd0a4f28419497f9722a3daafe3b4186f6b6457e060405160405180910390a380600160006101000a81548173ffffffffffffffffffffffffffffffffffffffff021916908373ffffffffffffffffffffffffffffffffffffffff16021790555050565b600033905090565b60008135905061115d81611a9f565b92915050565b60008151905061117281611ab6565b92915050565b60008135905061118781611acd565b92915050565b60008135905061119c81611ae4565b92915050565b6000815190506111b181611ae4565b92915050565b6000602082840312156111cd576111cc6118aa565b5b60006111db8482850161114e565b91505092915050565b6000602082840312156111fa576111f96118aa565b5b600061120884828501611163565b91505092915050565b60008060006060848603121561122a576112296118aa565b5b600061123886828701611178565b935050602061124986828701611178565b925050604061125a8682870161118d565b9150509250925092565b60006020828403121561127a576112796118aa565b5b60006112888482850161118d565b91505092915050565b6000602082840312156112a7576112a66118aa565b5b60006112b5848285016111a2565b91505092915050565b6112c7816117fd565b82525050565b6112d68161180f565b82525050565b6112e581611857565b82525050565b60006112f8601983611621565b9150611303826118bc565b602082019050919050565b600061131b603883611621565b9150611326826118e5565b604082019050919050565b600061133e602683611621565b915061134982611934565b604082019050919050565b6000611361601d83611621565b915061136c82611983565b602082019050919050565b6000611384601c83611621565b915061138f826119ac565b602082019050919050565b60006113a7602283611621565b91506113b2826119d5565b604082019050919050565b60006113ca601683611621565b91506113d582611a24565b602082019050919050565b60006113ed602083611621565b91506113f882611a4d565b602082019050919050565b6000611410601f83611621565b915061141b82611a76565b602082019050919050565b61142f8161184d565b82525050565b600060208201905061144a60008301846112be565b92915050565b600060608201905061146560008301866112be565b61147260208301856112be565b61147f6040830184611426565b949350505050565b600060408201905061149c60008301856112be565b6114a96020830184611426565b9392505050565b60006020820190506114c560008301846112cd565b92915050565b60006020820190506114e060008301846112dc565b92915050565b600060208201905081810360008301526114ff816112eb565b9050919050565b6000602082019050818103600083015261151f8161130e565b9050919050565b6000602082019050818103600083015261153f81611331565b9050919050565b6000602082019050818103600083015261155f81611354565b9050919050565b6000602082019050818103600083015261157f81611377565b9050919050565b6000602082019050818103600083015261159f8161139a565b9050919050565b600060208201905081810360008301526115bf816113bd565b9050919050565b600060208201905081810360008301526115df816113e0565b9050919050565b600060208201905081810360008301526115ff81611403565b9050919050565b600060208201905061161b6000830184611426565b92915050565b600082825260208201905092915050565b6000808291508390505b600185111561167c578086048111156116585761165761187b565b5b60018516156116675780820291505b8081029050611675856118af565b945061163c565b94509492505050565b60006116908261184d565b915061169b8361184d565b92506116c87fffffffffffffffffffffffffffffffffffffffffffffffffffffffffffffffff84846116d0565b905092915050565b6000826116e0576001905061179c565b816116ee576000905061179c565b8160018114611704576002811461170e5761173d565b600191505061179c565b60ff8411156117205761171f61187b565b5b8360020a9150848211156117375761173661187b565b5b5061179c565b5060208310610133831016604e8410600b84101617156117725782820a90508381111561176d5761176c61187b565b5b61179c565b61177f8484846001611632565b925090508184048111156117965761179561187b565b5b81810290505b9392505050565b60006117ae8261184d565b91506117b98361184d565b9250817fffffffffffffffffffffffffffffffffffffffffffffffffffffffffffffffff04831182151516156117f2576117f161187b565b5b828202905092915050565b60006118088261182d565b9050919050565b60008115159050919050565b6000611826826117fd565b9050919050565b600073ffffffffffffffffffffffffffffffffffffffff82169050919050565b6000819050919050565b600061186282611869565b9050919050565b60006118748261182d565b9050919050565b7f4e487b7100000000000000000000000000000000000000000000000000000000600052601160045260246000fd5b600080fd5b60008160011c9050919050565b7f4d6967726174696f6e206e6f7420737461727465642079657400000000000000600082015250565b7f496d706f737369626c6520746f20776974686472617720746f6b656e7320696660008201527f206d6967726174696f6e207374696c6c20656e61626c65640000000000000000602082015250565b7f4f776e61626c653a206e6577206f776e657220697320746865207a65726f206160008201527f6464726573730000000000000000000000000000000000000000000000000000602082015250565b7f4d6967726174696f6e20697320616c72656164792064697361626c6564000000600082015250565b7f4d6967726174696f6e20697320616c726561647920656e61626c656400000000600082015250565b7f596f75206d75737420686f6c6420563120746f6b656e7320746f206d6967726160008201527f7465000000000000000000000000000000000000000000000000000000000000602082015250565b7f4e6f20656e6f756768205632206c697175696469747900000000000000000000600082015250565b7f4f776e61626c653a2063616c6c6572206973206e6f7420746865206f776e6572600082015250565b7f5265656e7472616e637947756172643a207265656e7472616e742063616c6c00600082015250565b611aa8816117fd565b8114611ab357600080fd5b50565b611abf8161180f565b8114611aca57600080fd5b50565b611ad68161181b565b8114611ae157600080fd5b50565b611aed8161184d565b8114611af857600080fd5b5056fea2646970667358221220a6afe35239d65167e60f2c960e959c82f508b5e97fccbf76566975df1c0e1a6e64736f6c63430008060033",
  "immutableReferences": {
    "282": [
      {
        "length": 32,
        "start": 2537
      },
      {
        "length": 32,
        "start": 3332
      }
    ]
  },
  "source": "// SPDX-License-Identifier: MIT\r\npragma solidity ^0.8.6;\r\n\r\n\r\nabstract contract Context {\r\n    function _msgSender() internal view virtual returns (address payable) {\r\n        return payable(msg.sender);\r\n    }\r\n\r\n    function _msgData() internal view virtual returns (bytes memory) {\r\n        this; // silence state mutability warning without generating bytecode - see https://github.com/ethereum/solidity/issues/2691\r\n        return msg.data;\r\n    }\r\n}\r\n\r\n\r\ninterface IERC20 {\r\n    function decimals() external view returns (uint256);\r\n    function totalSupply() external view returns (uint256);\r\n    function balanceOf(address account) external view returns (uint256);\r\n    function transfer(address recipient, uint256 amount) external returns (bool);\r\n    function allowance(address owner, address spender) external view returns (uint256);\r\n    function approve(address spender, uint256 amount) external returns (bool);\r\n    function transferFrom(address sender, address recipient, uint256 amount) external returns (bool);\r\n    event Transfer(address indexed from, address indexed to, uint256 value);\r\n    event Approval(address indexed owner, address indexed spender, uint256 value);\r\n}\r\n\r\n/// https://github.com/OpenZeppelin/openzeppelin-contracts/blob/master/contracts/security/ReentrancyGuard.sol\r\nabstract contract ReentrancyGuard {\r\n    uint256 private constant _NOT_ENTERED = 1;\r\n    uint256 private constant _ENTERED = 2;\r\n\r\n    uint256 private _status;\r\n\r\n    constructor() {\r\n        _status = _NOT_ENTERED;\r\n    }\r\n\r\n    modifier nonReentrant() {\r\n        require(_status != _ENTERED, \"ReentrancyGuard: reentrant call\");\r\n        _status = _ENTERED;\r\n        _;\r\n        _status = _NOT_ENTERED;\r\n    }\r\n}\r\n\r\n\r\ncontract Ownable is Context {\r\n    address private _owner;\r\n    address private _previousOwner;\r\n\r\n    event OwnershipTransferred(address indexed previousOwner, address indexed newOwner);\r\n\r\n    constructor () {\r\n        address msgSender = _msgSender();\r\n        _owner = msgSender;\r\n        emit OwnershipTransferred(address(0), msgSender);\r\n    }\r\n\r\n    function owner() public view returns (address) {\r\n        return _owner;\r\n    }\r\n\r\n    modifier onlyOwner() {\r\n        require(_owner == _msgSender(), \"Ownable: caller is not the owner\");\r\n        _;\r\n    }\r\n\r\n    function renounceOwnership() public virtual onlyOwner {\r\n        emit OwnershipTransferred(_owner, address(0));\r\n        _owner = address(0);\r\n    }\r\n\r\n    function transferOwnership(address newOwner) public virtual onlyOwner {\r\n        require(newOwner != address(0), \"Ownable: new owner is the zero address\");\r\n        emit OwnershipTransferred(_owner, newOwner);\r\n        _owner = newOwner;\r\n    }\r\n\r\n}\r\n\r\ncontract Migrate is ReentrancyGuard, Context, Ownable{\r\n\r\n    // we want to track who has already migrated to V2\r\n    mapping(address => bool) private claimed;\r\n    address public immutable deadWallet = 0x000000000000000000000000000000000000dEaD;\r\n\r\n    IERC20 public tokenV1; //address of the old version\r\n    IERC20 public tokenV2; //address of the new version\r\n    uint256 public rate; // 1 token V1 ---> 1 * rate token V2\r\n\r\n    bool public migrationStarted;\r\n\r\n    /// @notice Emits event every time someone migrates\r\n    event MigrateToV2(address addr, uint256 amount);\r\n\r\n    /// @param tokenAddressV1 The address of old version\r\n    /// @param tokenAddressV2 The address of new version\r\n    /// @param _rate The rate between old and new version\r\n    constructor(IERC20 tokenAddressV1, IERC20 tokenAddressV2, uint256 _rate) {\r\n        tokenV2 = tokenAddressV2;\r\n        tokenV1 = tokenAddressV1;\r\n        rate = _rate;\r\n    }\r\n\r\n    /// @notice Enables the migration\r\n    function startMigration() external onlyOwner{\r\n        require(migrationStarted == false, \"Migration is already enabled\");\r\n        migrationStarted = true;\r\n    }\r\n\r\n    /// @notice Disable the migration\r\n    function stopMigration() external onlyOwner{\r\n        require(migrationStarted == true, \"Migration is already disabled\");\r\n        migrationStarted = false;\r\n    }\r\n\r\n    /// @notice Updates \"tokenV1\", \"tokenV2\" and the \"rate\"\r\n    /// @param tokenV1addr The address of old version\r\n    /// @param tokenV2addr The address of new version\r\n    /// @param _rate The rate between old and new version\r\n    function setTokenV1andV2(IERC20 tokenV1addr, IERC20 tokenV2addr, uint256 _rate) external onlyOwner{\r\n        tokenV1 = tokenV1addr;\r\n        tokenV2 = tokenV2addr;\r\n        rate = _rate;\r\n    }\r\n\r\n    /// @notice Withdraws remaining tokens\r\n    function withdrawTokens(uint256 amount) external onlyOwner{\r\n        require(migrationStarted == false, \"Impossible to withdraw tokens if migration still enabled\");\r\n        tokenV2.transfer(msg.sender, amount * 10**(tokenV2.decimals()));\r\n    }\r\n\r\n    /// @param v1amount The amount of tokens to migrate\r\n    /// @notice Migrates from old version to new one\r\n    ///   User must call \"approve\" function on tokenV1 contract\r\n    ///   passing this contract address as \"sender\".\r\n    ///   Old tokens will be sent to burn\r\n    function migrateToV2(uint256 v1amount) public nonReentrant(){\r\n        require(migrationStarted == true, 'Migration not started yet');\r\n        uint256 amount = v1amount * 10 ** tokenV1.decimals();\r\n        uint256 userV1Balance = tokenV1.balanceOf(msg.sender);\r\n        require(userV1Balance >= amount, 'You must hold V1 tokens to migrate');\r\n        uint256 amtToMigrate = v1amount * rate * 10 ** tokenV2.decimals();\r\n        require(tokenV2.balanceOf(address(this)) >= amtToMigrate, 'No enough V2 liquidity');\r\n        tokenV1.transferFrom(msg.sender, deadWallet, amount);\r\n        tokenV2.transfer(msg.sender, amtToMigrate);\r\n        emit MigrateToV2(msg.sender, amtToMigrate);\r\n    }\r\n\r\n}",
  "sourcePath": "C:\\Users\\FAVOUR\\Downloads\\cmder\\migrate.sol\\contracts\\migrate.sol",
  "compiler": {
    "name": "solc",
    "version": "0.8.6+commit.11564f7e.Emscripten.clang"
  },
  "schemaVersion": "3.4.3",
  "updatedAt": "2021-09-30T21:22:32.746Z",
  "devdoc": {
    "kind": "dev",
    "methods": {
      "constructor": {
        "params": {
          "_rate": "The rate between old and new version",
          "tokenAddressV1": "The address of old version",
          "tokenAddressV2": "The address of new version"
        }
      },
      "migrateToV2(uint256)": {
        "params": {
          "v1amount": "The amount of tokens to migrate"
        }
      },
      "setTokenV1andV2(address,address,uint256)": {
        "params": {
          "_rate": "The rate between old and new version",
          "tokenV1addr": "The address of old version",
          "tokenV2addr": "The address of new version"
        }
      }
    },
    "version": 1
  },
  "userdoc": {
    "events": {
      "MigrateToV2(address,uint256)": {
        "notice": "Emits event every time someone migrates"
      }
    },
    "kind": "user",
    "methods": {
      "migrateToV2(uint256)": {
        "notice": "Migrates from old version to new one   User must call \"approve\" function on tokenV1 contract   passing this contract address as \"sender\".   Old tokens will be sent to burn"
      },
      "setTokenV1andV2(address,address,uint256)": {
        "notice": "Updates \"tokenV1\", \"tokenV2\" and the \"rate\""
      },
      "startMigration()": {
        "notice": "Enables the migration"
      },
      "stopMigration()": {
        "notice": "Disable the migration"
      },
      "withdrawTokens(uint256)": {
        "notice": "Withdraws remaining tokens"
      }
    },
    "version": 1
  }
}